:020000040800F2
:100000000050002045420008590500085B05000823
:100010005D0500085F05000861050008000000009C
:10002000000000000000000000000000212900087E
:100030006305000800000000C129000865050008EC
:100040008D4200088D4200088D4200088D42000854
:100050008D4200088D4200088D4200088D42000844
:100060008D4200088D4200088D4200088D42000834
:100070008D4200088D4200088D4200088D42000824
:100080008D4200088D4200088D4200088D42000814
:100090008D4200088D4200088D4200088D42000804
:1000A0008D4200088D4200088D4200088D420008F4
:1000B0008D4200087D0500088D4200088D42000831
:1000C0008D4200088D4200088D4200088D420008D4
:1000D0008D4200088D4200088D4200088D420008C4
:1000E0008D4200088D4200088D420008000000008B
:1000F0000000000000000000000000000000000000
:0C01000000000000000000005FF808F1A3
:1001100010B5054C237833B9044B13B10448AFF341
:1001200000800123237010BD3C040020000000006B
:10013000B844000808B5034B1BB103490348AFF3AB
:10014000008008BD0000000040040020B844000802
:10015000844641EA000313F0030349D1403A23D314
:100160000B6803604B6843608B688360CB68C36037
:100170000B6903614B6943618B698361CB69C3611F
:100180000B6A03624B6A43628B6A8362CB6AC36207
:100190000B6B03634B6B43638B6B8363CB6BC363EF
:1001A00040304031403ADBD230320BD30B68036031
:1001B0004B6843608B688360CB68C360103010313C
:1001C000103AF3D20C3205D351F8043B40F8043B0B
:1001D000043AF9D2043208D0D2071CBF11F8013B0F
:1001E00000F8013B01D30B8803806046704700BFD5
:1001F000082A13D38B07B1D010F00303AED0C3F19C
:100200000403D21ADB071CBF11F8013B00F8013BC5
:10021000A4D331F8023B20F8023B9FE7043AD9D33C
:10022000013A11F8013B00F8013BF9D20B78037059
:100230004B7843708B7883706046704708B5002216
:100240000121024800F0E6FE08BD00BF000C01409D
:1002500008B5094A138801339BB21380C72B00D815
:1002600008BD134600221A800C21044802F0E4F86D
:10027000FFF7E4FFF4E700BF58040020BC040020AF
:1002800000B583B000F02AFB002000907F233F22BE
:10029000014600F0A5FC044A0121084600F048FC94
:1002A00003B05DF804FB00BFD044000808B5094C5A
:1002B00000220121204600F0ADFE0122042120464B
:1002C00000F0A8FE0C21044802F048F8012002F0DA
:1002D00065FAFBE7000C0140BC04002008B50120D2
:1002E00002F05CFAFBE708B5FFF7CAFF012002F055
:1002F00055FAF9E708B50B4A00210B4802F0D8F986
:100300000A4B18600A4A00210A4802F0D1F90A4B48
:1003100018600A4A00210A4802F0CAF9094B18601D
:1003200008BD00BF08450008AD0200085C040020BD
:100330002C450008DD02000860040020504500083C
:10034000E70200086404002030B589B0002404945A
:100350000594069407941B4B9A6942F020029A6117
:100360009A6902F020020192019A9A6942F004020D
:100370009A619A6902F004020292029A9A6942F022
:1003800008029A619B6903F008030393039B0E4DD7
:1003900022468D21284600F03DFE8D230493012343
:1003A000059306940223079304A9284600F020FD34
:1003B000702304930594069404A9284600F018FDC0
:1003C00009B030BD00100240000C014008B50B48D8
:1003D0000B4B03600B4B436000238360C3604FF4FF
:1003E0008042026143618361C361036200F0BCFF2C
:1003F00000B908BD00F03AF8FBE700BF6804002030
:1004000000580040A086010010B586B0002302937A
:100410000393049305930268114B9A4201D006B0EE
:1004200010BD104CA36943F00803A361A36903F056
:1004300008030093009B4FF440630293122303933D
:100440000323059302A9084800F0D2FCE36943F4B2
:100450008003E361E36903F480030193019BDEE71A
:100460000058004000100240000C014072B6FEE748
:1004700000B591B02822002106A803F02DFF00232B
:1004800001930293039304930593012306934FF47E
:10049000A02207920A9302230D934FF480330E9308
:1004A0004FF480130F9306A801F004F980B90F23CD
:1004B000019302210291002303934FF4806204927E
:1004C000059301A801F02EFB20B911B05DF804FBE3
:1004D000FFF7CCFFFFF7CAFF08B500F0E5FBFFF719
:1004E000C7FFFFF731FFFFF771FF00F0EFF800F0F3
:1004F00007F900F093F802F093F8FFF7FBFE02F023
:10050000B1F8FEE700B583B0114B9A6942F00102E1
:100510009A619A6902F001020092009ADA6942F047
:100520008052DA61DB6903F080530193019B002262
:100530000F216FF0010000F001FC064A536823F020
:10054000E06343F00073536003B05DF804FB00BF49
:100550000010024000000140FEE7FEE7FEE7FEE774
:10056000FEE7704708B500F0B1FB03F0FBFB012884
:1005700000D108BD02F046FAFBE7000008B50248CA
:1005800001F062FC08BD00BFBC0400207047000001
:1005900002680E4B9A4200D0704700B583B003F555
:1005A0000333DA6942F00202DA61DB6903F0020325
:1005B0000193019B002205211D2000F0BFFB1D209F
:1005C00000F0F4FB03B05DF804FB00BF0004004042
:1005D00000B587B000230293039304930593026848
:1005E0000C4B9A4202D007B05DF804FB03F50333CD
:1005F0009A6942F008029A619B6903F0080301932B
:10060000019B022302930393059302A9024800F081
:10061000EFFBE8E700040040000C014000B58FB09C
:1006200000230A930B930C930D9308930993019362
:100630000293039304930593069307932148224A58
:1006400002604722426083604FF6FF72C26003611E
:10065000836101F0F1FC28BB4FF480530A930AA98F
:10066000184801F0EDFD00BB164801F011FDF8B986
:1006700000230893099308A9124801F01FFFD0B97D
:100680006023019300230293039305930C2201A995
:100690000C4801F05BFD88B90A48FFF799FF0FB0DD
:1006A0005DF804FBFFF7E2FED6E7FFF7DFFEDBE7CE
:1006B000FFF7DCFEDCE7FFF7D9FEE1E7FFF7D6FE48
:1006C000EAE700BFBC0400200004004008B50A4867
:1006D0000A4B03604FF4E133436000238360C3603F
:1006E00003610C2242618361C36101F069FF00B9BB
:1006F00008BDFFF7BBFEFBE7040500200038014002
:1007000008B50A480A4B03604FF4E1334360002305
:100710008360C36003610C2242618361C36101F0A5
:100720004FFF00B908BDFFF7A1FEFBE74C05002015
:100730000044004010B588B000230493059306934D
:10074000079303682C4A934204D02C4A93422BD03F
:1007500008B010BD2A4B9A6942F480429A619A69A6
:1007600002F480420092009A9A6942F004029A616F
:100770009B6903F004030193019B4FF400730493FE
:1007800002230593032307931E4C04A9204600F07F
:100790002FFB4FF48063049300230593069304A971
:1007A000204600F025FBD3E7154BDA6942F400320E
:1007B000DA61DA6902F400320292029A9A6942F02E
:1007C00004029A619B6903F004030393039B0423CF
:1007D000049302230593032307930A4C04A920469C
:1007E00000F006FB0823049300230593069304A955
:1007F000204600F0FDFAABE700380140004400401D
:10080000001002400008014090F800C0BCF17E0FCB
:1008100012D84FF0010C83F800C003781F2B0CD9BD
:1008200008230B80102313800078203880B2000149
:1008300083B203481844704770470020704700BFD8
:100840008C45000800B587B08DF817004FF6FF7390
:100850000293012301930DF11702009200227821E7
:10086000024800F05FFE07B05DF804FB680400205A
:1008700000B585B04FF6FF730293019100900123FC
:1008800040227821024800F04DFE05B05DF804FBDF
:100890006804002008B500F02BFA08BD08B510B1B7
:1008A000012804D008BDA620FFF7CCFFFAE7A72057
:1008B000FFF7C8FFF6E708B510B1012807D008BD5B
:1008C000C820FFF7BFFFA120FFF7BCFFF7E7C0205C
:1008D000FFF7B8FFA020FFF7B5FFF0E708B5C82085
:1008E000FFF7D8FFAE20FFF7ADFF0020FFF7AAFF0C
:1008F0001020FFF7A7FF4020FFF7A4FF8120FFF79C
:10090000A1FFCF20FFF79EFFA120FFF79BFFC8208C
:10091000FFF798FFA620FFF795FFA820FFF792FFAB
:100920003F20FFF78FFFD320FFF78CFF0020FFF75A
:1009300089FFD520FFF786FF8020FFF783FFD920AE
:10094000FFF780FFF120FFF77DFFDA20FFF77AFF46
:100950001220FFF777FFDB20FFF774FF4020FFF73F
:1009600071FF2020FFF76EFF0020FFF76BFF8D2047
:10097000FFF768FF1420FFF765FFA420FFF762FF71
:10098000A620FFF75FFFAF20FFF75CFF0020FFF717
:1009900085FF0020FFF78FFF4FF48062002102489F
:1009A00003F09AFC08BD00BF940500207F2817D8EB
:1009B0003F2915D84FEAD10C01F00701012303FAB2
:1009C00001F132B100EBCC10064A135C194311540B
:1009D000704700EBCC10034A135C23EA0101115469
:1009E000704700BF9405002008B52120FFF72AFFBB
:1009F0000020FFF727FF7F20FFF724FF2220FFF7CB
:100A000021FF0020FFF71EFF0720FFF71BFF4FF419
:100A100080610248FFF72CFF08BD00BF940500204D
:100A20002DE9F04F83B081468846934601934FF0FD
:100A3000000A57462EE009EBC50080B207EB08011B
:100A40002044002289B280B2FFF7B0FF0134A4B283
:100A5000072C0FD8802323411E42ECD009EBC500A0
:100A600080B207EB08012044012289B280B2FFF76F
:100A70009DFFEBE70135ADB2B5EBDB0F08D20C9B68
:100A800013F80A600AF1010A1FFA8AFA0024DFE764
:100A90000137BFB2019B9F4201D20025ECE703B0B2
:100AA000BDE8F08FF0B585B006460D46144606E069
:100AB0000134BDF80C100D44ADB200263B4603F1E5
:100AC000FF3C5FFA8CF71BB323780BB30A2BEFD0F4
:100AD0000DF10B0303AA0DF10E012046FFF794FE62
:100AE0009DF80B301C440090BDF80C30BDF80E2072
:100AF00029463046FFF794FFBDF80E00304486B219
:100B0000802EDBD9BDF80C100D44ADB20026D5E720
:100B100005B0F0BD70B505460E461446104603F00C
:100B20002DFCC3B2224631462846FFF7BBFF70BDFD
:100B300008B5FFF7EFFFFFF757FF08BD2DE9F04FAE
:100B400083B080468946A2EB000AA3EB010BBAF101
:100B5000000F0DDD01220092BBF1000F14DD012317
:100B60000193DA451CDD564600252F462C461BE036
:100B7000BAF1000F05D0A0EB020A4FF0FF3200924D
:100B8000EAE7CDF800A0E7E7BBF1000F05D0A1EB45
:100B9000030B4FF0FF330193E3E7CDF804B0E0E738
:100BA0005E46E1E70134A4B2731C9C4215DC0122CD
:100BB00049464046FFF7FAFE57445D44BE4204DA18
:100BC000BF1B009B98441FFA88F8AE42EADAAD1BBF
:100BD000019B99441FFA89F9E4E703B0BDE8F08F5F
:100BE0002DE9F04106460D4690461F469DF8183007
:100BF0008BB100240BE006EB080292B2013A2919EE
:100C00002B4692B289B23046FFF798FF0134A742D3
:100C1000F1D8BDE8F08180441FFA88F808F1FF3868
:100C20001FFA88F80B464246FFF788FFEC19A4B27A
:100C3000013CA4B22346424621463046FFF77EFFE0
:100C40002346324629463046FFF778FF2346424680
:100C500029464046FFF772FFDBE7000010B5044667
:100C60000E4B18784FF47A73B3FBF0F30C4A10680C
:100C7000B0FBF3F000F0A8F868B90F2C01D90120FF
:100C80000AE0002221464FF0FF3000F057F8054BF4
:100C90001C60002000E0012010BD00BF0400002007
:100CA000000000200800002008B5074A136843F040
:100CB00010031360032000F02FF80F20FFF7CEFF82
:100CC000FFF720FC002008BD00200240034A116805
:100CD000034B1B780B441360704700BF940900203E
:100CE00004000020014B1868704700BF94090020E1
:100CF00038B50446FFF7F6FF0546B4F1FF3F02D0D2
:100D0000044B1B781C44FFF7EDFF401BA042FAD3B5
:100D100038BD00BF04000020074AD36823F4E06315
:100D20001B041B0C000200F4E060034343F0BF63AC
:100D300043F40033D360704700ED00E000B5194B79
:100D4000DB68C3F30223C3F1070CBCF1040F28BF17
:100D50004FF0040C03F1040EBEF1060F18D9033B4B
:100D60004FF0FF3E0EFA0CFC21EA0C0199400EFAFE
:100D700003F322EA0303194300280BDB0901C9B27C
:100D800000F1604000F5614080F800135DF804FB5D
:100D90000023E5E700F00F000901C9B2024B195426
:100DA000F4E700BF00ED00E014ED00E0002807DBF1
:100DB00000F01F02400901239340024A42F820300C
:100DC000704700BF00E100E00138B0F1807F0BD236
:100DD0004FF0E0235861054AF02182F823100020EB
:100DE000986107221A6170470120704700ED00E00A
:100DF00070B582B00024A446A6E0804DAA4210D06F
:100E000007D97F4DAA420CD005F58035AA4208D0FB
:100E100013E0A5F58015AA4203D005F57025AA4276
:100E200007D18A68002A58D0012A51D0436108248A
:100E300003E0A5F58015AA42F3D0BEF1FF0F4ED80E
:100E40000646BEF1FF0F4CD84FEA8C0233680F25DF
:100E5000954023EA050304FA02F2134333604B681A
:100E600013F0805F6ED0674B9A6942F001029A617D
:100E70009B6903F001030193019B4FEA9C02951CBF
:100E8000614B53F825600CF003039D000F23AB402A
:100E900026EA03065D4B984229D003F58063984209
:100EA00000F08E8003F58063984200F08B8003F59C
:100EB0008063984219D004231AE0CC68BDE7CC685F
:100EC0000434BAE7CC680834B7E7CC680C34B4E72C
:100ED00003610824B1E70024AFE70424ADE7061D51
:100EE000AFE7ACF108029200B0E7032300E0002373
:100EF000AB4033430232444D45F822304B6813F483
:100F0000801F61D0424A936843EA0E0393604B68A6
:100F100013F4001F5ED03E4AD36843EA0E03D36049
:100F20004B6813F4003F5BD0394A536843EA0E0321
:100F300053604B6813F4803F58D0354A136843EA36
:100F40000E0313600CF1010C0A6832FA0CF353D053
:100F5000012303FA0CF302EA030E33EA0202F1D191
:100F60004A68122A3FF649AF122A3FF666AF01A53A
:100F700055F822F0230E0008BB0E0008C50E00082D
:100F8000D70E00083B0E00083B0E00083B0E000881
:100F90003B0E00083B0E00083B0E00083B0E00080D
:100FA0003B0E00083B0E00083B0E00083B0E0008FD
:100FB0003B0E00083B0E0008BF0E0008CB0E0008D9
:100FC000012395E7022393E7114A936823EA0E036E
:100FD00093609CE70E4AD36823EA0E03D3609FE731
:100FE0000B4A536823EA0E035360A2E7084A1368CA
:100FF00023EA0E031360A5E702B070BD00002210C3
:1010000000003110001002400000014000080140C3
:10101000000401400AB10161704709040161704791
:1010200003685A6912F4806F01D1002070476FF491
:1010300080625A6100230363202280F83D2080F8FB
:101040003E30026C42F00402026480F83C30012021
:1010500070472DE9F04106460C46174698463BE09E
:10106000FFF740FE069BC01A404502D8B8F1000FBA
:1010700032D1012D18D033689B6924EA03039BB257
:10108000B3FA83F35B099F4226D100233363202206
:1010900086F83D2086F83E30326C42F02002326401
:1010A00086F83C30012027E033685B6924EA0303BB
:1010B0009BB2B3FA83F35B09E5E733685B6924EA23
:1010C000030C1FFA8CFCBCFA8CFC4FEA5C1C6745D5
:1010D00011D1B8F1FF3FC3D1C4F30745012DECD0C6
:1010E00033689B6924EA030C1FFA8CFCBCFA8CFC65
:1010F0004FEA5C1CEBE70020BDE8F0812DE9F843E6
:1011000005460E469046994653E01A6842F400722E
:101110001A602B686FF480625A6100232B632022CF
:1011200085F83D2085F83E302A6C42F004022A649E
:1011300085F83C3001204AE0FFF7D4FDA0EB090020
:10114000404502D8B8F1000F33D1012F17D02B68DA
:101150009B6926EA03039BB2003B18BF012343B3FC
:1011600000232B63202285F83D2085F83E302A6C31
:1011700042F020022A6485F83C30012027E02B68E9
:101180005B6926EA03039BB2003B18BF0123E6E735
:101190002B689C6926EA0404A4B2003C18BF012411
:1011A000A4B12B685A6912F4806FAED1B8F1FF3F39
:1011B000C2D1C6F30747012FEAD12B685C6926EA42
:1011C0000404A4B2003C18BF0124E9E70020BDE8F4
:1011D000F88370B504460D46164623685B6913F024
:1011E000800F21D12046FFF71BFFF8B9B5F1FF3F73
:1011F000F3D0FFF777FD801BA84201D8002DECD17A
:1012000023685B6913F0800FE7D10023236320225A
:1012100084F83D2084F83E30226C42F020022264A3
:1012200084F83C30012000E0002070BD0120FCE784
:101230002DE9F04385B004460D4691461F46DDF882
:1012400030800D9E0368196841F480711960009622
:10125000434600224FF00111FFF7FBFE60B92368FF
:1012600005F0FE051D613346424626492046FFF73C
:1012700045FF68B1012008E023681B6813F4807FF4
:1012800002D04FF400732364032005B0BDE8F0835F
:101290000023039323685A6903929B690393039B7A
:1012A000324641462046FFF794FF30B9012F0FD157
:1012B00023685FFA89F61E61E7E7236C042B01D0EF
:1012C0000120E2E72268136843F400731360F7E734
:1012D00023684FEA19221A61324641462046FFF739
:1012E00078FF20B923685FFA89F61E61CDE7236C89
:1012F000042B01D00120C8E72268136843F400736F
:101300001360F7E70200010070B504460D4616466B
:1013100023685B6913F0040F21D12046FFF780FE9C
:10132000F8B9B5F1FF3FF3D0FFF7DCFC801BA84212
:1013300001D8002DECD123685B6913F0040FE7D1CD
:1013400000232363202284F83D2084F83E30226C61
:1013500042F02002226484F83C30012000E00020AA
:1013600070BD0120FCE70000002800F0CC8070B5C3
:10137000044690F83D30002B77D0242384F83D308C
:101380002268136823F0010313602268136843F492
:10139000004313602268136823F40043136000F0D5
:1013A0007DFC62685A4B9A4264D85A4B98428CBF73
:1013B00000230123002B40F0A8805749A1FB0031F6
:1013C0008B0C25686A6822F03F0242EA91426A600B
:1013D00021680A6A22F03F0266684D4DAE424FD83E
:1013E000013313430B622168CA6922F44F4222F091
:1013F000FF026668464B9E424CD8431E7600B3FB04
:10140000F6F3013340F6FC70034278D0C3F30B03CC
:101410001343CB6121680B6823F0C003E269206AA3
:10142000024313430B6021688B6823F4034323F0CA
:10143000FF032269E068024313438B602168CB6895
:1014400023F0FF036269A06902431343CB60226863
:10145000136843F00103136000202064202384F804
:101460003D30206384F83E0070BD80F83C30FEF7CC
:10147000CBFF82E7294B98428CBF0023012399E7D9
:101480004FF4967505FB03F3254DA5FB03539B090C
:101490000133A6E7A368BBB9451E06EB460CB5FBB6
:1014A000FCF50135C5F30B05B5FA85F56D0945BBAE
:1014B000C3B9013806EB4603B0FBF3F30133C3F3C2
:1014C0000B0343F40043A3E7451E06EB860C0CEB2D
:1014D0008C0CB5FBFCF50135C5F30B05B5FA85F5AC
:1014E0006D09E4E7013806EB860303EB8303B0FBE9
:1014F000F3F30133C3F30B0343F4404388E70423BE
:1015000086E7012384E7012070470120ACE700BF94
:10151000A08601007F841E0083DE1B43FF083D0080
:10152000D34D62102DE9F04383B004460F46904638
:1015300099460C9EFFF7D6FB054694F83D00C0B2D5
:10154000202803D0022003B0BDE8F08300951923C2
:1015500001224B492046FFF77CFD002840F089809E
:1015600094F83C30012B00F08680012384F83C3055
:1015700023681A6812F0010F03D11A6842F00102C1
:101580001A602268136823F400631360212384F82F
:101590003D30402384F83E30002323640A9B63627D
:1015A000BDF82C306385638D2385364BE36201954E
:1015B00000964B46424639462046FFF739FE002842
:1015C0005BD1238D002B35D02A4631462046FFF7CC
:1015D00000FE20BB626A236812781A61626A531C9B
:1015E0006362218D013989B22185638D9BB2013BF4
:1015F0009BB263852368586910F0040FE1D000297D
:10160000DFD052781A61636A01336362238D013B34
:101610002385638D9BB2013B9BB26385D1E7236C2D
:10162000042B01D001208EE72268136843F4007375
:101630001360F7E72A4631462046FFF765FE50B1B2
:10164000236C042B01D001207DE72268136843F44A
:1016500000731360F7E72268136843F400731360A4
:10166000202384F83D30002384F83E3084F83C3059
:1016700069E7022067E7022065E7012063E700BF12
:10168000020010000000FFFF82B0084B1B68084AF0
:10169000A2FB03235B0A00FB03F3019300BF019B42
:1016A0005A1E0192002BF9D102B0704700000020B1
:1016B000D34D6210002800F0F18170B582B004466D
:1016C000036813F0010F2CD0994B5B6803F00C03F7
:1016D000042B1DD0964B5B6803F00C03082B12D033
:1016E0006368B3F5803F41D0002B55D103F18043AF
:1016F00003F504331A6822F480321A601A6822F45F
:1017000080221A6037E08A4B5B6813F4803FE7D091
:10171000874B1B6813F4003F03D06368002B00F075
:10172000BF81236813F0020F75D0814B5B6813F003
:101730000C0F5FD07E4B5B6803F00C03082B54D07A
:101740002369002B00F08A807A4B01221A60FFF790
:10175000C9FA0546764B1B6813F0020F75D1FFF7E7
:10176000C1FA401B0228F5D903209EE1704A136894
:1017700043F480331360636843B3FFF7B3FA05465D
:101780006B4B1B6813F4003FCBD1FFF7ABFA401B48
:101790006428F5D9032088E1B3F5A02F09D0644B64
:1017A0001A6822F480321A601A6822F480221A60C1
:1017B000E1E703F18043A3F53C331A6842F4802249
:1017C0001A601A6842F480321A60D4E7FFF78AFA86
:1017D0000546574B1B6813F4003FA2D0FFF782FA6F
:1017E000401B6428F5D903205FE1514B5B6813F47B
:1017F000803FA5D14E4B1B6813F0020F03D0236925
:10180000012B40F04F814A4A136823F0F8036169C5
:1018100043EAC1031360236813F0080F33D0A369B0
:10182000002B5CD0434B0122C3F88024FFF75AFA07
:1018300005463F4B5B6A13F0020F21D1FFF752FAC6
:10184000401B0228F5D903202FE1394A136823F001
:10185000F803616943EAC1031360DCE7354B0022FA
:101860001A60FFF73FFA0546314B1B6813F0020F71
:10187000D1D0FFF737FA401B0228F5D9032014E135
:101880000120FFF701FF236813F0040F00F096809A
:10189000274BDB6913F0805F34D1254BDA6942F0C6
:1018A0008052DA61DB6903F080530193019B0125CB
:1018B000214B1B6813F4807F26D0E368012B3DD0B9
:1018C000002B53D103F1804303F504331A6A22F04D
:1018D00001021A621A6A22F004021A6233E0154BFE
:1018E0000022C3F88024FFF7FDF90546104B5B6A20
:1018F00013F0020FC7D0FFF7F5F9401B0228F5D906
:101900000320D2E00025D3E70B4A136843F4807329
:101910001360FFF7E7F90646074B1B6813F4807F57
:10192000CBD1FFF7DFF9801B6428F5D90320BCE099
:101930000010024000004242007000405F4A136AFB
:1019400043F001031362E36833B3FFF7CBF90646B4
:101950005A4B1B6A13F0020F2FD1FFF7C3F9801BFC
:1019600041F288339842F3D903209EE0052B09D039
:10197000524B1A6A22F001021A621A6A22F0040219
:101980001A62E0E74D4B1A6A42F004021A621A6AC0
:1019900042F001021A62D6E7FFF7A4F90646474B68
:1019A0001B6A13F0020F08D0FFF79CF9801B41F26D
:1019B00088339842F3D9032077E0E5B9E369002B37
:1019C00072D03E4A526802F00C02082A56D0022B0E
:1019D00017D03B4B00221A66FFF784F90446374BB9
:1019E0001B6813F0007F47D0FFF77CF9001B02282B
:1019F000F5D9032059E0314AD36923F08053D361EC
:101A0000DCE72F4B00221A66FFF76CF905462B4BDB
:101A10001B6813F0007F06D0FFF764F9401B022813
:101A2000F5D9032041E0236AB3F5803F1AD023495A
:101A30004B6823F47413226A606A024313434B60B9
:101A40001F4B01221A66FFF74DF904461B4B1B681A
:101A500013F0007F0ED1FFF745F9001B0228F5D9DE
:101A6000032022E0154A536823F40033A1680B4396
:101A70005360DCE7002018E0002016E0012B16D0B0
:101A80000E4B5B6803F48031226A914211D103F45A
:101A90007013626A93420ED1002006E00120704765
:101AA000012002E0012000E0002002B070BD012012
:101AB000FBE70120F9E70120F7E700BF0010024033
:101AC00000004242114B5A6802F00C03042B18D05C
:101AD000082B18D1C2F383430D49C85C12F4803F30
:101AE0000BD00A4B5B68C3F340430A4AD35C0A4AF3
:101AF00002FB00F0B0FBF3F07047084B03FB00F073
:101B00007047054870470648704700BF0010024004
:101B10007C4B00088C4B0008001BB70000093D00FF
:101B200000127A00002800F0A08070B50D4604462F
:101B3000524B1B6803F007038B420BD24F4A1368CA
:101B400023F007030B431360136803F007038B4272
:101B500040F08D80236813F0020F17D013F0040FAC
:101B600004D0474A536843F4E0635360236813F09A
:101B7000080F04D0424A536843F460535360404A0C
:101B8000536823F0F003A1680B435360236813F0FC
:101B9000010F31D06368012B20D0022B25D0384AA9
:101BA000126812F0020F64D035494A6822F003022D
:101BB00013434B60FFF796F80646314B5B6803F022
:101BC0000C036268B3EB820F16D0FFF78BF8801B13
:101BD00041F288339842F0D9032045E0284A126840
:101BE00012F4003FE0D101203EE0254A126812F0D5
:101BF000007FD9D1012037E0204B1B6803F0070399
:101C0000AB420AD91D4A136823F007032B43136024
:101C1000136803F00703AB422DD1236813F0040FC0
:101C200006D0174A536823F4E063E1680B4353601E
:101C3000236813F0080F07D0114A536823F4605348
:101C4000216943EAC1035360FFF73CFF0C4B5B681B
:101C5000C3F303130B4AD35CD8400B4B18600B4BF8
:101C60001868FEF7FBFF002070BD012070470120BF
:101C7000FAE70120F8E70120F6E700BF0020024064
:101C800000100240744500080000002008000020F9
:101C9000014B1868704700BF0000002008B5FFF72F
:101CA000F7FF044B5B68C3F30223034AD35CD840BD
:101CB00008BD00BF001002408445000808B5FFF7CA
:101CC000E7FF044B5B68C3F3C223034AD35CD840ED
:101CD00008BD00BF001002408445000870B4036ACC
:101CE000026A22F0010202624668826922F07302EF
:101CF0000C6844EA020523F002028B6813430D4C82
:101D0000A04209D00B4CA0420DD0466085614A68C4
:101D10004263036270BC704723F00803CA68134330
:101D200023F00403EEE726F440764A6932438E69D5
:101D30001643EAE7002C014030B4036A026A22F439
:101D4000807202624568C26922F073020C68224305
:101D500023F400738C6843EA04230F4CA04209D09B
:101D60000D4CA0420ED04560C2614A68C263036256
:101D700030BC704723F40063CC6843EA042323F4A7
:101D80008063EDE725F440554C6945EA04158C69FC
:101D900045EA0415E7E700BF002C014030B4036AB0
:101DA000026A22F4805202624468C26922F4E64266
:101DB0000D6842EA052223F400538D6843EA053397
:101DC000074DA84206D04460C2614A6802640362BB
:101DD00030BC704724F480444D6944EA8514F2E72E
:101DE000002C014010B4036A046A24F00104046268
:101DF000846924F0F00C4CEA021223F00A030B432E
:101E00008261036210BC704710B4036A046A24F054
:101E100010040462846924F4704C4CEA023223F00A
:101E2000A00343EA01138261036210BC7047836818
:101E300023F070030B4343F0070383607047704740
:101E4000704770477047704710B5044603681A69B9
:101E500012F0020F11D0DA6812F0020F0DD06FF0FD
:101E600002021A610123037703689B6913F0030FD1
:101E700070D0FFF7E7FF0023237723681A6912F079
:101E8000040F12D0DA6812F0040F0ED06FF00402C3
:101E90001A610223237723689B6913F4407F5FD084
:101EA0002046FFF7CFFF0023237723681A6912F03B
:101EB000080F12D0DA6812F0080F0ED06FF0080287
:101EC0001A61042323772368DB6913F0030F4ED0D4
:101ED0002046FFF7B7FF0023237723681A6912F023
:101EE000100F12D0DA6812F0100F0ED06FF010023F
:101EF0001A61082323772368DB6913F4407F3DD000
:101F00002046FFF79FFF0023237723681A6912F00A
:101F1000010F03D0DA6812F0010F36D123681A6975
:101F200012F0800F03D0DA6812F0800F34D12368EA
:101F30001A6912F0400F03D0DA6812F0400F32D164
:101F400023681A6912F0200F03D0DA6812F0200F0C
:101F500030D110BDFFF775FF2046FEF779F98AE70B
:101F60002046FFF76EFF2046FEF772F99BE72046FA
:101F7000FFF767FF2046FEF76BF9ACE72046FFF757
:101F800060FF2046FEF764F9BDE76FF001021A61B9
:101F90002046FFF755FFC1E76FF080021A61204627
:101FA00000F0C3FAC3E76FF040021A612046FFF762
:101FB0004AFFC5E76FF020021A61204600F0B4FA2C
:101FC000C7E7000003681B4A90420AD0B0F1804F77
:101FD00007D0A2F59432904203D002F5806290427D
:101FE00003D123F070034A681343124A90420AD087
:101FF000B0F1804F07D0A2F59432904203D002F5A1
:102000008062904203D123F44073CA68134323F0E3
:1020100080034A69134303608B68C3620B68836261
:10202000044B984202D00123436170470B6903635C
:10203000F9E700BF002C014040B310B5044690F80A
:102040003D30F3B1022384F83D30214651F8040BB2
:10205000FFF7B8FF012384F8463084F83E3084F857
:102060003F3084F8403084F8413084F8423084F8BE
:10207000433084F8443084F8453084F83D30002003
:1020800010BD80F83C30FEF783FADBE70120704793
:1020900040B310B5044690F83D30F3B1022384F804
:1020A0003D30214651F8040BFFF78CFF012384F8E3
:1020B000463084F83E3084F83F3084F8403084F86D
:1020C000413084F8423084F8433084F8443084F856
:1020D000453084F83D30002010BD80F83C30FFF7DB
:1020E000AEFEDBE70120704730B4036A026A22F0DB
:1020F000100202624468826922F4E6420D6842EAF4
:10210000052223F020038D6843EA05130E4DA842F3
:1021100009D00D4DA8420ED0446082614A688263A6
:10212000036230BC704723F08003CD6843EA051397
:1021300023F04003EDE724F440644D6944EA85044C
:102140008D6944EA8504E7E7002C014038B590F832
:102150003C30012B66D004460D46012380F83C300C
:102160000C2A5AD8DFE802F0075959591B59595916
:102170003059595944000068FFF7B0FD226893694F
:1021800043F0080393612268936923F00403936189
:102190002268936929690B43936100203EE000683F
:1021A000FFF7A2FF2268936943F4006393612268FA
:1021B000936923F48063936122689369296943EAF0
:1021C00001239361002029E00068FFF7B5FD226834
:1021D000D36943F00803D3612268D36923F0040371
:1021E000D3612268D36929690B43D361002015E0CC
:1021F0000068FFF7D3FD2268D36943F40063D3611D
:102200002268D36923F48063D3612268D369296982
:1022100043EA0123D361002000E00120002384F879
:102220003C3038BD0220FCE710B4846824F47F4CB5
:1022300042EA03220A4342EA0C02826010BC704761
:1022400090F83C30012B78D010B50446012380F87B
:102250003C30022380F83D300268936823F47F43CA
:1022600023F0770393600B68602B4CD029D8402B68
:1022700054D00CD9502B22D1CA6849680068FFF7A6
:10228000B1FD50212068FFF7D2FD002005E0202B92
:102290000DD009D9302B0AD00120012384F83D301C
:1022A000002384F83C3010BD0BB1102B05D119462A
:1022B0002068FFF7BCFD0020EFE70120EDE70120DB
:1022C000EBE7B3F5805F34D0B3F5005F0CD1CB689A
:1022D0004A6889680068FFF7A7FF2268936843F49B
:1022E000804393600020D8E7702B24D1CB684A68E4
:1022F00089680068FFF798FF2268936843F07703C6
:1023000093600020C9E7CA6849680068FFF77CFD50
:1023100060212068FFF78BFD0020BEE7CA6849688E
:102320000068FFF75FFD40212068FFF780FD002077
:10233000B3E70020B1E70120AFE70220704701F0CA
:102340001F01012303FA01FC036A23EA0C03036261
:10235000036A02FA01F10B430362704710B50446A9
:10236000084651BB94F83E30DBB2013B18BF012355
:10237000002B5BD1002839D1022384F83E300122A2
:1023800001462068FFF7DBFF23682A4A93423DD0CD
:102390002368284A93423ED0B3F1804F3BD0A2F548
:1023A0009432934237D002F58062934233D01A6858
:1023B00042F001021A60002039E0042908D00829FF
:1023C0000DD094F84130DBB2013B18BF0123CFE7B9
:1023D00094F83F30DBB2013B18BF0123C8E794F803
:1023E0004030DBB2013B18BF0123C1E7042805D010
:1023F000082807D0022384F84130C0E7022384F87C
:102400003F30BCE7022384F84030B8E75A6C42F40E
:1024100000425A64BCE79A6802F00702062A07D015
:102420001A6842F001021A60002000E0012010BD8D
:102430000020FCE7002C014038B504460D46002280
:102440000068FFF77CFF23681B4A934214D023687F
:10245000196A41F21112114208D1196A40F244423C
:10246000114203D11A6822F001021A609DB90123BA
:1024700084F83E30002038BD196A41F21112114231
:10248000E5D1196A40F244421142E0D15A6C22F47B
:1024900000425A64DBE7042D05D0082D07D0012344
:1024A00084F84130E6E7012384F83F30E2E7012376
:1024B00084F84030DEE700BF002C014090F83C304B
:1024C000012B2CD010B4012380F83C30022380F87B
:1024D0003D3003685A689C6822F0700C0A6842EA32
:1024E0000C025A6003680F4A93420AD0B3F1804F3E
:1024F00007D0A2F59432934203D002F58062934252
:1025000004D124F080044A6814439C60012380F8BD
:102510003D30002380F83C30184610BC7047022044
:10252000704700BF002C01407047704710B504464B
:102530000268136923F44053C1680B431361836835
:102540000269134342691A430168CB6823F4B0530C
:1025500023F00C031343CB600268536923F44073E8
:1025600081690B4353610268134B9A4220D0FFF7F5
:1025700095FB024602EB820202EB820263689B003B
:10258000B2FBF3F20D48A0FB02314909642303FBBF
:1025900011231B013233A0FB03235B0903F0F0027C
:1025A00002EB011203F00F03216813448B6010BD8E
:1025B000FFF784FB0246DDE7003801401F85EB5141
:1025C00060B310B5044690F8413013B3242384F867
:1025D00041302268D36823F40053D3602046FFF7CC
:1025E000A5FF2268136923F490431361226853699D
:1025F00023F02A0353612268D36843F40053D36065
:1026000000206064202384F8413084F84230606305
:1026100010BD80F84030FEF78DF8D7E701207047F5
:10262000EFF3058393B9EFF3108393B90C4B18685C
:10263000022804D080B90A4B01221A607047EFF3D8
:102640001183002BF6D06FF0050070476FF0050086
:1026500070476FF0050070474FF0FF30704700BFC4
:10266000F40B002008B5EFF30583B3B9EFF3108343
:10267000B3B90E4B1B68022B08D0012B13D10B4BA7
:1026800002221A6001F0CCF8002008BDEFF311829D
:10269000002AF2D06FF00500F7E76FF00500F4E7CD
:1026A0006FF00500F1E74FF0FF30EEE7F40B00208C
:1026B000F0B587B000240494EFF30584002C43D1D7
:1026C000EFF31083002B3FD1334B1B68022B16D046
:1026D000002839D000238DF8173062B3156895B102
:1026E000936903B918235C1E372C51D8546814F031
:1026F000010F4FD156694EB14FEA960C08E0EFF347
:1027000011830BBBE4E70DF11705E9E74FF0800CEF
:1027100094682CB1D7685B2F02D9176907B1B6B995
:1027200014B14FF0FF340CE0D46894B914699CB133
:102730004FF0FF3405E0002418234FF0800C0DF11A
:102740001705012C0AD0ACB1049807B0F0BD0124E4
:10275000F7E74FF0FF34F4E70024F2E714699268DA
:102760000292019400930B466246294600F0EAFF6C
:102770000490E9E704AA019200930B461FFA8CF239
:10278000294601F019F80128DED000230493DBE785
:102790000020DAE70020D8E7F40B002008B5EFF3BB
:1027A0000583A3B9EFF31083A3B90C4B1B68022B6D
:1027B00002D040B9002008BDEFF31183002BF8D000
:1027C0006FF00500F7E701F08FF90020F3E76FF0F5
:1027D0000500F0E76FF00500EDE700BFF40B002007
:1027E000034B0360034B0B6080231360704700BFF3
:1027F000980B002098090020034B0360034B0B60EB
:102800004FF4807313607047F80F0020F80B00201E
:1028100000F1080343604FF0FF328260C360036140
:1028200000230360704700230361704743684B60D7
:102830009A688A6051609960086103680133036097
:10284000704730B40D68B5F1FF3F11D000F10803B7
:102850001C465B681A68AA42FAD963684B609960A3
:102860008C606160086103680133036030BC7047AD
:102870000469F2E70369416882688A6041685160CF
:102880005A68824206D0002202611A68013A1A6030
:102890001868704782685A60F5E7000082B000232C
:1028A00001930D4B1B68B3F1FF3F08D04FF050036D
:1028B00083F31188BFF36F8FBFF34F8FFEE74FF0A5
:1028C000500383F31188BFF36F8FBFF34F8F019BCA
:1028D000002BFCD002B070470C00002006480068B6
:1028E000006880F3088862B661B6BFF34F8FBFF30C
:1028F0006F8F00DF00BF000008ED00E04FF0807335
:1029000040F8043C21F0010140F8081C034B40F85A
:102910000C3C40F8202C4038704700BF9D28000830
:10292000074B19680868B0E8F00F80F30988BFF317
:102930006F8F4FF0000080F311884EF00D0E70473E
:10294000B41C00204FF0500383F31188BFF36F8F46
:10295000BFF34F8F0B4A136801331360012B00D074
:1029600070474FF0E023D3F8043D13F0FF0FF7D08A
:102970004FF0500383F31188BFF36F8FBFF34F8F76
:10298000FEE700BF0C000020094B1B6843B94FF065
:10299000500383F31188BFF36F8FBFF34F8FFEE7B0
:1029A000013B034A13600BB983F31188704700BFE2
:1029B0000C000020000000000000000000000000EB
:1029C000EFF30980BFF36F8F0D4B1A6820E9F00F0A
:1029D00010602DE908404FF0500080F3118801F09D
:1029E000A9F84FF0000080F31188BDE8084019688D
:1029F0000868B0E8F00F80F30988BFF36F8F704765
:102A0000B41C002008B54FF0500383F31188BFF3C6
:102A10006F8FBFF34F8F00F05FFF28B14FF0E023BF
:102A20004FF08052C3F8042D002383F3118808BDB2
:102A30004FF0E022002313619361054B1B680549A9
:102A4000A1FB03139B09013B5361072313617047EB
:102A500000000020D34D621010B582B02A4B1A78C6
:102A6000D2B20192FF221A701B78DBB28DF80330CC
:102A70009DF8033003F05003244A1370244B0722BF
:102A80001A6009E0224A1368013B13609DF8033085
:102A90005B00DBB28DF803309DF8033013F0800F3C
:102AA000F0D11B4B1B68032B08D04FF0500383F36E
:102AB0001188BFF36F8FBFF34F8FFEE71B02144ADD
:102AC000136003F4E0631360019BDBB20E4A1370E2
:102AD0004FF0E023D3F8202D42F47002C3F8202DEC
:102AE000D3F8202D42F07042C3F8202DFFF7A0FF4D
:102AF0000024084B1C60FFF7F1FE01F01BF8FFF704
:102B0000CDFE204602B010BD00E400E054100020CD
:102B1000581000200C000020EFF305830F2B0FD975
:102B2000114A9B5CDBB2114A12789A4208D94FF0E5
:102B3000500383F31188BFF36F8FBFF34F8FFEE70E
:102B40004FF0E023D3F80C3D03F4E063084A126829
:102B5000934208D94FF0500383F31188BFF36F8F6E
:102B6000BFF34F8FFEE77047F0E300E05410002002
:102B700058100020124A12F0070F1ED0D11D21F06C
:102B80000701C1F5406313440A460E480260002164
:102B900041601344083B23F007030B48036059606E
:102BA0001960991A51601360084B1960084B19603D
:102BB000084B4FF000421A6070474FF44063E4E75F
:102BC000601000206C1C00205C100020681C00209D
:102BD000641C0020601C0020154B1A461B688342B1
:102BE000FBD3516802EB010C844509D0416800EB2E
:102BF000010C634509D00360904218D01060704703
:102C00004068014451601046F0E710B4094C246854
:102C1000A3420AD05B681944416013681B680360D3
:102C2000904200D0106010BC70470460F8E7704715
:102C30006C1C00205C10002070B5054600F03EFEC4
:102C4000344B1B68A3B1344B1B681D424AD135B1CC
:102C5000083515F0070F02D025F007050835002DBF
:102C600042D02E4B1B68AB424DD32D4A146804E072
:102C7000FFF780FFE7E722461C466368AB4202D2BB
:102C80002368002BF7D1234B1B68A3423DD0166865
:102C900008362368136063685B1B102B10D960191A
:102CA00010F0070F08D04FF0500383F31188BFF3E3
:102CB0006F8FBFF34F8FFEE743606560FFF78CFFB8
:102CC000626816490B689B1A0B60164909688B42AB
:102CD00001D214490B60104B1B681343636000233F
:102CE000236002E0002600E0002600F081FE16F0DE
:102CF000070F0CD04FF0500383F31188BFF36F8F91
:102D0000BFF34F8FFEE70026EFE70026EDE73046E2
:102D100070BD00BF5C100020601C0020641C0020FF
:102D20006C1C0020681C002080B338B50446A0F15C
:102D3000080550F8043C164A1268134208D14FF0B7
:102D4000500383F31188BFF36F8FBFF34F8FFEE7FC
:102D500050F8081C41B14FF0500383F31188BFF3C2
:102D60006F8FBFF34F8FFEE723EA020340F8043C66
:102D700000F0A4FD54F8041C064A13680B441360C9
:102D80002846FFF729FF00F033FE38BD704700BF2B
:102D9000601C0020641C002010B50446FFF7D2FD23
:102DA000A26BE36B9A4204D00024FFF7EDFD2046AE
:102DB00010BD0124F9E710B50446FFF7C3FDA36B6E
:102DC00023B90124FFF7E0FD204610BD0024F9E7F8
:102DD00070B504461546866B026C5AB903681BB180
:102DE00000200136A66370BD406800F0CBFF0023D1
:102DF0006360F6E76DB98068FDF7AAF9226CA368F5
:102E00001344A3606268934219D32368A3602846E1
:102E1000E7E7C068FDF79CF9226C5142E3689B1A12
:102E2000E3602268934202D263680B44E360022DA0
:102E300001D00020D5E726B1013E0020D1E7284689
:102E4000CFE70020CDE708B50346026C62B1084623
:102E5000D9681144D960D3F804C0614501D3196819
:102E6000D960D968FDF774F908BD38B50546FFF794
:102E700069FD95F8454064B201E0013C64B2002C64
:102E80000ADD6B6A43B105F1240000F0D1FE002891
:102E9000F3D000F061FFF0E7FF2385F84530FFF73E
:102EA00073FDFFF74FFD95F8444064B201E0013C2B
:102EB00064B2002C0ADD2B6943B105F1100000F06B
:102EC000B7FE0028F3D000F047FFF0E7FF2385F8B6
:102ED0004430FFF759FD38BD38B5E0B10D46044622
:102EE000FFF730FD2368E26B216C01FB023060606C
:102EF0000020A063A360013A02FB0133E360FF23DB
:102F000084F8443084F84530FDB9236963B9FFF78C
:102F10003BFD012038BD4FF0500383F31188BFF310
:102F20006F8FBFF34F8FFEE704F1100000F080FEBB
:102F30000028ECD04FF0E0234FF08052C3F8042D6E
:102F4000BFF34F8FBFF36F8FE1E704F11000FFF77E
:102F50005FFC04F12400FFF75BFCD8E738B51D46A1
:102F6000049C0B4649B92460E06323640121204698
:102F7000FFF7B2FF84F84C5038BD2260F4E740B947
:102F80004FF0500383F31188BFF36F8FBFF34F8F60
:102F9000FEE710B584B01C46844653B192B189B99E
:102FA0004FF0500383F31188BFF36F8FBFF34F8F40
:102FB000FEE74FF0500383F31188BFF36F8FBFF329
:102FC0004F8FFEE76AB150230393039B502B13D01E
:102FD0004FF0500383F31188BFF36F8FBFF34F8F10
:102FE000FEE70029EFD04FF0500383F31188BFF3C1
:102FF0006F8FBFF34F8FFEE7012384F846300094B4
:103000009DF818306046FFF7A9FF204604B010BDB8
:10301000F0B585B0019288B10F461D460446B1B1A6
:10302000022D20D1E36B012B1DD04FF0500383F311
:103030001188BFF36F8FBFF34F8FFEE74FF0500340
:1030400083F31188BFF36F8FBFF34F8FFEE7036CDD
:10305000002BE5D04FF0500383F31188BFF36F8F3F
:10306000BFF34F8FFEE700F07DFE064658B9019B87
:10307000002B48D04FF0500383F31188BFF36F8FBC
:10308000BFF34F8FFEE700263DE02A463946204633
:10309000FFF79EFE636A7BB948B14FF0E0234FF023
:1030A0008052C3F8042DBFF34F8FBFF36F8FFFF72C
:1030B0006BFC012005B0F0BD04F1240000F0B8FD68
:1030C0000028F4D04FF0E0234FF08052C3F8042DD5
:1030D000BFF34F8FBFF36F8FE9E7FFF755FC002079
:1030E000E8E702A800F0EAFD012619E0002384F8D1
:1030F000443021E0002384F8453023E02046FFF7E8
:10310000B4FE00F075FCFFF71DFCA26BE36B9A4266
:10311000BBD3022DB9D0019B002BDED0002EE0D016
:10312000FFF732FC00F0CAFBFFF70CFC94F84420D8
:1031300052B2B2F1FF3FD9D094F8452052B2B2F169
:10314000FF3FD7D0FFF720FC01A902A800F0C2FD85
:10315000D8B92046FFF720FE0028CFD0019904F10E
:10316000100000F031FD2046FFF77FFE00F040FC2C
:103170000028C8D14FF0E0234FF08052C3F8042D4F
:10318000BFF34F8FBFF36F8FBDE72046FFF76DFE94
:1031900000F02EFC00208DE72DE9F84390B10F469A
:1031A00016461C460546B1B1022C20D1EB6B012B13
:1031B0001DD04FF0500383F31188BFF36F8FBFF31F
:1031C0004F8FFEE74FF0500383F31188BFF36F8FEB
:1031D000BFF34F8FFEE7036C002BE5D04FF0500399
:1031E00083F31188BFF36F8FBFF34F8FFEE7FFF7B5
:1031F00093FCEFF311894FF0500383F31188BFF371
:103200006F8FBFF34F8FAA6BEB6B9A4206D3022CE2
:1032100004D0002089F31188BDE8F88395F8458033
:103220004FFA88F8224639462846FFF7D1FDB8F113
:10323000FF3F06D008F101035BB285F8453001205D
:10324000E8E76B6A0BB90120E4E705F1240000F020
:10325000EFFC18B126B101203060DBE70120D9E78F
:103260000120D7E7F0B585B0019290B10F46044632
:10327000C1B100F077FD064600BB019B002B5ED07C
:103280004FF0500383F31188BFF36F8FBFF34F8F5D
:10329000FEE74FF0500383F31188BFF36F8FBFF346
:1032A0004F8FFEE7036C002BE3D04FF0500383F306
:1032B0001188BFF36F8FBFF34F8FFEE700263EE00C
:1032C00039462046FFF7BFFD013DA563236923B9B9
:1032D000FFF75AFB012005B0F0BD04F1100000F02B
:1032E000A7FC0028F4D04FF0E0234FF08052C3F841
:1032F000042DBFF34F8FBFF36F8FE9E7FFF744FB58
:103300000020E8E702A800F0D9FC012621E0002314
:1033100084F8443029E0002384F845302BE020462F
:10332000FFF7A3FD00F064FB09E02046FFF79DFDD9
:1033300000F05EFB2046FFF73EFD00283FD1FFF77F
:1033400001FBA56B002DBBD1019B002BD6D0002E1D
:10335000D8D0FFF719FB00F0B1FAFFF7F3FA94F8B1
:1033600044305BB2B3F1FF3FD1D094F845305BB24B
:10337000B3F1FF3FCFD0FFF707FB01A902A800F090
:10338000A9FC0028D1D12046FFF715FD0028C6D0A2
:10339000019904F1240000F017FC2046FFF765FDB9
:1033A00000F026FB0028CAD14FF0E0234FF08052F6
:1033B000C3F8042DBFF34F8FBFF36F8FBFE700201B
:1033C00089E700000023072B0CD8074A52F8332066
:1033D0000AB10133F7E7044A42F8331002EBC303A2
:1033E00058607047704700BF741C002070B50446D9
:1033F0000D461646FFF7A6FA94F844305BB2B3F1D7
:10340000FF3F0DD094F845305BB2B3F1FF3F0BD0D6
:10341000FFF7BAFAA36B5BB12046FFF726FD70BD3C
:10342000002384F84430EDE7002384F84530EFE7CB
:103430003246294604F1240000F0DEFBECE70000F0
:10344000084B1B681B6823B9074B4FF0FF321A600B
:103450007047044B1B68DB68DB685A68024B1A60D4
:10346000704700BFB81C0020642100202DE9F04700
:1034700080460D4617469946089EDDF824A00A9C12
:103480009200A521206B00F027FF236B07F18042FB
:10349000013A03EB820727F007074FF0000CBCF15D
:1034A0000F0F0BD815F80C2004EB0C0383F8342015
:1034B00015F80C3013B10CF1010CF0E7002384F87F
:1034C0004330372E00D93726E662E66400252565AD
:1034D000201DFFF7A8F904F11800FFF7A4F92461F3
:1034E000C6F13806A6616462656584F858504A469C
:1034F00041463846FFF702FA2060BAF1000F01D0CA
:10350000CAF80040BDE8F08738B5002407E004EBB6
:10351000840293000E481844FFF77AF90134372CDF
:10352000F5D90C4D2846FFF773F90B4C2046FFF7F1
:103530006FF90A48FFF76CF90948FFF769F909487C
:10354000FFF766F9084B1D60084B1C6038BD00BFD3
:10355000C01C0020382100204C2100206C210020BC
:103560009821002084210020B81C0020BC1C0020D1
:1035700010B50446FFF7E6F9224A136801331360D9
:10358000214B1B685BB1214B1B686BB91E4B1B6841
:10359000DA6AE36A9A4207D81B4B1C6004E01A4BB4
:1035A0001C601368012B29D0194A1368013313607A
:1035B0006364E06A174B1B68984201D9154B186089
:1035C00000EB8000211D144B03EB8000FFF72EF968
:1035D000FFF7DAF90D4B1B687BB10B4B1B68DA6AFE
:1035E000E36A9A4209D24FF0E0234FF08052C3F8C9
:1035F000042DBFF34F8FBFF36F8F10BDFFF784FF14
:10360000D2E700BF20210020B41C00208021002030
:103610003021002034210020C01C002010B50446B9
:1036200090F8593063B1012B11D0022B0ED04FF01E
:10363000500383F31188BFF36F8FBFF34F8FFEE703
:10364000006BFFF771FB2046FFF76EFB10BDFFF725
:103650006BFBFBE70F4B1B68D3B110B5FFF772F99B
:103660000D4BDB68DC68201DFFF704F90B4A13687B
:10367000013B1360074A1368013B1360FFF784F9AD
:103680002046FFF7CBFF034B1B68002BE6D110BD94
:10369000704700BF24210020982100202021002015
:1036A00008B5FFF7D7FF074B1B68012BF9D94FF07F
:1036B000E0234FF08052C3F8042DBFF34F8FBFF3C8
:1036C0006F8FEEE7C01C002070B504460D46174B07
:1036D0001E68174B18680430FFF7CCF8B4F1FF3FB1
:1036E0000DD03444124B1B685C60A64210D9114BBC
:1036F00018680F4B19680431FFF7A3F870BD002D4F
:10370000EFD00B4B196804310B48FFF78FF8F5E742
:103710000A4B1868064B19680431FFF792F8084BFA
:103720001B68A342EAD9064B1C60E7E7AC210020E6
:10373000B41C0020BC1C002084210020B81C0020E8
:103740006421002030B587B00B9C7CB10C9DB5B1D5
:103750005C250495049D5C2D1AD04FF0500383F333
:103760001188BFF36F8FBFF34F8FFEE74FF0500309
:1037700083F31188BFF36F8FBFF34F8FFEE74FF0D6
:10378000500383F31188BFF36F8FBFF34F8FFEE7B2
:103790000C9D2C63022485F8594000240394029563
:1037A00005AC01940A9C0094FFF760FE0C98FFF7AB
:1037B000DFFE059807B030BD2DE9F04385B0074620
:1037C000884614461E469000FFF736FA00B381463D
:1037D0005C20FFF731FA0546B0B1C0F83090E5B192
:1037E000002385F85930039302950D9B01930C9BA0
:1037F00000933346224641463846FFF737FE2846B7
:10380000FFF7B6FE012005E04846FFF78DFAE6E730
:103810004FF0FF3005B0BDE8F0834FF0FF30F9E71F
:1038200010B588B000240594069407AA06A905A837
:10383000FEF7D6FF059B0293069B01930094234657
:10384000079A18491848FFF77DFF184B186040B1D8
:1038500000F04CFB012806D0B0F1FF3F18D008B0B3
:1038600010BD0020F6E74FF0500383F31188BFF33B
:103870006F8FBFF34F8F0E4B4FF0FF321A600D4B1F
:1038800001221A600C4B00221A60FFF7E5F8E6E708
:103890004FF0500383F31188BFF36F8FBFF34F8F47
:1038A000FEE700BF904B0008A13600086021002011
:1038B0006421002080210020AC210020024A1368EE
:1038C00001331360704700BF2C210020014B1868A2
:1038D000704700BFAC210020F8B53A4B1B68002BA5
:1038E00064D1394B1D6801351D60C5B9374B1B6864
:1038F0001B6843B14FF0500383F31188BFF36F8F00
:10390000BFF34F8FFEE7314A1168314B18681060E2
:103910001960304A136801331360FFF791FD2E4B95
:103920001B68AB4238D900272C4B1B68DB6A03EBC2
:1039300083039A002A4B9B58012B3CD901273AE07C
:103940000127224B1B681B6843B3204B1B68DB68B5
:10395000DC6863689D4226D3261D3046FEF78AFF49
:10396000A36A1BB104F11800FEF784FFE36A1D4A45
:103970001268934201D91B4A136003EB83039A0038
:10398000314617481044FEF751FFE26A134B1B689B
:10399000DB6A9A42D4D2D4E70027D2E70E4B4FF02D
:1039A000FF321A60C0E70C4A1360BDE70E4A136885
:1039B0000133136000270D4B1B6803B10127384604
:1039C000F8BD00BF2C210020AC210020B81C002035
:1039D000BC1C00206821002064210020B41C0020B1
:1039E000C01C00203421002028210020B02100200C
:1039F00038B5354B1B6843B94FF0500383F311883A
:103A0000BFF36F8FBFF34F8FFEE7FEF79BFF2E4B89
:103A10001A68013A1A601B68002B4FD12B4B1B68A8
:103A20000BB900244BE00024294B1B681BB3284B27
:103A3000DB68DC6804F11800FEF71CFF251D284632
:103A4000FEF718FFE06A234B1B68984201D9214B0F
:103A5000186000EB800029461F4B03EB8000FEF747
:103A6000E5FEE26A1D4B1B68DB6A9A42DCD31C4B05
:103A700001221A60D8E70CB1FFF7E2FC194B1C6871
:103A800084B9174B1C68D4B14FF0E0234FF080523B
:103A9000C3F8042DBFF34F8FBFF36F8F01240EE0E7
:103AA000013C07D0FFF718FF0028F9D00C4B01228A
:103AB0001A60F5E70B4B00221A60E2E70024FEF7DC
:103AC00063FF204638BD00BF2C21002020210020AC
:103AD0006C21002034210020C01C0020B41C0020D8
:103AE000B02100202821002010B5A8B10446104BB9
:103AF0001B6843B14FF0500383F31188BFF36F8FFE
:103B0000BFF34F8FFEE7FFF7D9FE00212046FFF7F6
:103B1000DBFDFFF76DFF48B94FF0E0234FF0805217
:103B2000C3F8042DBFF34F8FBFF36F8F10BD00BFDD
:103B30002C2100201F4B1B681BB11F4B01221A6058
:103B400070471D4B00221A601C4B1B6803EB83015E
:103B50008A001B498A585AB90BB1013BF6E74FF06E
:103B6000500383F31188BFF36F8FBFF34F8FFEE7CE
:103B700003EB830082000A4450684068506003EB06
:103B8000830C4FEA8C020832114488420BD003EBBD
:103B9000830291000A4A0A445268D168094A1160B6
:103BA000064A13607047406862469100044A0A441E
:103BB0005060ECE72C210020B021002034210020AF
:103BC000C01C0020B41C002058B110B50C46094A96
:103BD00011681831FEF735FE01212046FFF774FD0C
:103BE00010BD4FF0500383F31188BFF36F8FBFF305
:103BF0004F8FFEE7B41C002038B570B10D46144657
:103C00000A4A11681831FEF711FE0CB14FF0FF356A
:103C100021462846FFF758FD38BD4FF0500383F387
:103C20001188BFF36F8FBFF34F8FFEE7B41C0020E6
:103C300038B5C368DC6824B304F118052846FEF7DC
:103C400019FE184B1B682BBB251D2846FEF712FEDC
:103C5000E06A154B1B68984201D9134B186000EBC2
:103C600080002946114B03EB8000FEF7DFFDE26A7E
:103C70000F4B1B68DB6A9A4211D901200D4B18606B
:103C800038BD4FF0500383F31188BFF36F8FBFF33C
:103C90004F8FFEE729460848FEF7C8FDE7E70020FA
:103CA000EEE700BF2C21002034210020C01C0020A2
:103CB000B41C0020B02100206C210020034B1B68A5
:103CC0000360034B1B684360704700BF68210020FE
:103CD000AC210020D8B170B50C46054601B3FEF703
:103CE00031FE1B4B19686B68C81A2268B2F1FF3F9E
:103CF00027D0184E3668D5F800C0B44501D08B42A5
:103D000024D9824215D80023236001241AE04FF001
:103D1000500383F31188BFF36F8FBFF34F8FFEE71C
:103D20004FF0500383F31188BFF36F8FBFF34F8FB2
:103D3000FEE75B1A134423602846FFF7BFFF002409
:103D400000E00024FEF720FE204670BD0124F9E7C4
:103D5000AC21002068210020014B01221A6070472D
:103D6000B0210020054B1B6833B1054B1B680BB11C
:103D700000207047022070470120704780210020FA
:103D80002C21002000283BD038B504461E4B1B6870
:103D9000834208D04FF0500383F31188BFF36F8F35
:103DA000BFF34F8FFEE7036D43B94FF0500383F32A
:103DB0001188BFF36F8FBFF34F8FFEE7013B0365A1
:103DC000C16AC26C91421DD00BB1002038BD051DE7
:103DD0002846FEF74FFDE06CE062C0F13803A361B6
:103DE0000A4B1B68984201D9084B186000EB800011
:103DF0002946074B03EB8000FEF718FD0120E5E79D
:103E0000002070470020E1E7B41C0020342100208E
:103E1000C01C0020064B1A681368B3FA83F35B09D1
:103E2000036013B9D368186870470020704700BF5B
:103E3000B421002008B54160006191420CD8D21A2B
:103E400083699A4201D3012008BD011D094B1868FE
:103E5000FEF7F7FC0020F7E79A4201D2994206D21A
:103E6000011D054B1868FEF7ECFC0020ECE7012073
:103E7000EAE700BFB8210020B421002030B583B0AC
:103E8000FEF760FD114B1B681BB1FEF77DFD03B013
:103E900030BD0F4D2846FEF7BBFC0E4C2046FEF70A
:103EA000B7FC0D4B1D600D4B1C60002300930C4BA9
:103EB0000C4A10210A20FFF762F8044B1860002812
:103EC000E3D00949FFF77EFADFE700BFD8220020E0
:103ED0005C22002070220020B4210020B8210020A4
:103EE00088220020BC210020984B000810B588B023
:103EF000FFF7C4FF124B1B68CBB100240594069456
:103F000007AA06A905A8FEF777FC059B0293069B66
:103F10000193022300932346079A0A490A48FFF7B0
:103F200011FC0A4B186010B1012008B010BD4FF011
:103F3000500383F31188BFF36F8FBFF34F8FFEE7FA
:103F4000D8220020A04B00082D420008DC220020CF
:103F5000B8B19C4603461848006858B300B585B010
:103F600000910192029305291CDCFFF7FBFE022859
:103F700010D000231A4669460F480068FFF748F83A
:103F800015E04FF0500383F31188BFF36F8FBFF339
:103F90004F8FFEE70023069A694607480068FFF73F
:103FA00037F804E0002362466946FFF7F5F805B0EC
:103FB0005DF804FB00207047D822002070B582B065
:103FC0001A4B1B681A6852B3DB681E68DC68251D33
:103FD0002846FEF74FFC636A20469847E369012BA9
:103FE000EED1A36933449E4207D26360246129461F
:103FF0000E4B1868FEF725FCE2E7002100910B4606
:1040000032462046FFF7A4FF0028D9D14FF05003D5
:1040100083F31188BFF36F8FBFF34F8FFEE7044A1E
:10402000106802490860136002B070BDB42100201E
:10403000B821002038B50546FFF748FC0446074B79
:104040001B68834205D800232B60044B1C6020466C
:1040500038BDFFF7B3FF01232B60F6E78422002071
:1040600070B582B006460D4614490968C968CC6827
:10407000201DFEF7FFFBE169012904D0636A204699
:10408000984702B070BDA16933462A4631442046A4
:10409000FFF7D0FE0028F1D0002100910B463246F8
:1040A0002046FFF755FF0028E8D14FF0500383F377
:1040B0001188BFF36F8FBFF34F8FFEE7B42100204D
:1040C00070B582B006460C46FFF7F8FB01A8FFF773
:1040D000B1FF019B2BBB05460CB9B0421AD22CB1E3
:1040E000124B1B681C68B4FA84F464092246711BE5
:1040F0000F4B1868FFF77AF9FFF77AFC98B94FF081
:10410000E0234FF08052C3F8042DBFF34F8FBFF36D
:104110006F8F08E0FFF76CFC29463046FFF7A0FFE1
:1041200001E0FFF765FC02B070BD00BFB8210020C0
:10413000D822002010B588B002E0049B002B0FDAD3
:10414000002204A9384B1868FFF78CF8002869D0C2
:10415000049B002BF1DA07990698059B9847ECE73A
:10416000069C636913B1201DFEF784FB03A8FFF7CB
:1041700061FF049B092BE3D801A252F823F000BF92
:10418000A9410008A9410008A941000841410008CF
:10419000EF41000815420008A9410008A9410008A4
:1041A00041410008EF410008059BA16902461944FE
:1041B0002046FFF73FFE0028C2D0636A204698479A
:1041C000E369012BBCD1A269002100910B4605983F
:1041D00002442046FFF7BCFE0028B1D14FF0500347
:1041E00083F31188BFF36F8FBFF34F8FFEE70599FD
:1041F000A16131B10346024601442046FFF71AFE91
:104200009EE74FF0500383F31188BFF36F8FBFF326
:104210004F8FFEE794F82C30002B91D12046FEF70B
:1042200083FD8DE708B010BDD822002000B583B013
:1042300001A8FFF7EFFD0199FFF742FFFFF77AFFB3
:10424000F6E70000FCF7A2F90B480C490C4A0023E2
:1042500002E0D458C4500433C4188C42F9D3094A3C
:10426000094C002301E013600432A242FBD300F0AA
:104270000FF8FCF731F97047000000203C040020E3
:10428000B84B00083C040020E4220020FEE70000B8
:1042900070B50D4E0D4D761BB61006D0002455F8A6
:1042A000043B01349847A642F9D1094E094D00F06C
:1042B00003F9761BB61006D0002455F8043B0134F0
:1042C0009847A642F9D170BDAC4B0008AC4B000832
:1042D000B44B0008AC4B0008830730B548D0541EDF
:1042E000002A3FD00346CAB201E0013C3AD303F8AA
:1042F000012B9D07F9D1032C2DD9CDB245EA052517
:104300000F2C45EA054536D9A4F1100222F00F0C16
:1043100003F1200EE6444FEA121C03F1100242E9B9
:10432000045542E9025510327245F8D10CF10102F0
:1043300014F00C0F03EB021204F00F0C13D0ACF1CD
:10434000040323F003030433134442F8045B934251
:10435000FBD10CF003042CB1CAB21C4403F8012BAE
:104360009C42FBD130BD64461346002CF4D1F9E7E2
:1043700003461446BFE71A46A446E0E720F00301CF
:1043800010F00300C0F1000051F8043B00F1040CF0
:104390004FEACC0C6FF000021CBF22FA0CF2134360
:1043A0004FF0010C4CEA0C2C4CEA0C4CA3EB0C0229
:1043B00022EA030212EACC1204BF51F8043B043093
:1043C000F4D0C2F1000102EA0102B2FA82F2C2F1B3
:1043D0001F0200EBD2007047024B13B1024800F0FD
:1043E00005B8704700000000F943000800230146AB
:1043F0001A46184600F01AB838B5084B084D5B1B32
:104400009C1007D0043B1D44013C55F804399847E3
:10441000002CF9D1BDE8384000F054B8B84B000882
:10442000B44B0008704700BF704700BF2DE9F0474C
:10443000DFF87CA00646DAF8000098460F46914661
:10444000FFF7F0FF1B4B1B68D3F8484124B36568A6
:104450001F2D26DC5EB96B1C0235DAF800006360A4
:1044600044F82570FFF7E0FF0020BDE8F087012346
:1044700004EB8501C1F88890D4F88821AB401A4339
:10448000022EC4F88821C1F80881E4D1D4F88C2127
:104490001343C4F88C31DEE703F5A674C3F8484132
:1044A000D5E7DAF80000FFF7BFFF4FF0FF30DCE799
:1044B00038040020A84B0008F8B500BFF8BC08BCC1
:1044C0009E467047F8B500BFF8BC08BC9E467047D2
:1044D000544D4332323039205465737420426F6139
:1044E000726400007461736B446973706C6179006D
:1044F0007461736B427574746F6E000064656661FD
:10450000756C745461736B00FC440008000000007B
:104510000000000000000000000000000002000099
:10452000180000000000000000000000F044000837
:10453000000000000000000000000000000000007B
:104540000002000018000000000000000000000051
:10455000E44400080000000000000000000000002B
:104560000000000000020000180000000000000031
:104570000000000000000000000000000102030431
:104580000607080900000000010203040000000003
:104590000000000000000000000000000000001803
:1045A0001818181818080008180000000000003437
:1045B000242424000000000000000000000000008F
:1045C00016247F2424247E242400000000000008F8
:1045D0003E6848681C1612127C1010000000006132
:1045E000D296740810162949C60000000000000089
:1045F0003C646438724ACE467F0000000000001818
:10460000181818000000000000000000000000045E
:10461000081810303030301010180C040000002042
:104620001008080C0404040C0818102000000008EE
:104630000A341C6A080000000000000000000000AE
:1046400000001818187F181818000000000000005B
:1046500000000000000000181808300000000000F2
:1046600000000000003C000000000000000000000E
:104670000000000000000018180000000000000208
:1046800006040C0808101020204000000000000064
:104690003C6642475B7342663C000000000000003D
:1046A00018784808080808087E000000000000008C
:1046B0003C460606040810207E00000000000000B2
:1046C0007C0606043C0202067C000000000000009C
:1046D0000C1C14246444FF040400000000000000CB
:1046E0007E6060607E0202067C0000000000000028
:1046F0001E306048764242623C000000000000002C
:104700007E0206040C0818103000000000000000B3
:104710003C6242361C6642423C0000000000000041
:104720003C664242661A0204780000000000000065
:104730000000181800000018180000000000000019
:1047400000001818000000181808300000000000D1
:10475000000004183060100C06000000000000008B
:10476000000000007E007E0000000000000000004D
:104770000000301804060C1020000000000000307B
:104780001C06060618100010100000000000001C97
:10479000224141DDB5A5A5AF94C0403C000000001A
:1047A000181C342426627E43C10000000000000073
:1047B0007C4642467C4242427C00000000000000F1
:1047C0001E204040404040603E00000000000000CD
:1047D0007C4642434343424678000000000000000C
:1047E0007E6060607E6060607E000000000000000F
:1047F0007E6060607E60606060000000000000001D
:104800001E604040CE4242623E00000000000000B8
:10481000424242427E42424242000000000000000A
:104820007E181818181818187E00000000000000E4
:104830007C04040404040444780000000000000028
:104840004244485070584C444200000000000000B0
:1048500020202020202020203E000000000000001A
:104860006266675F5B5BC1C1C100000000000000C1
:10487000626272525A4A4E46460000000000000032
:104880003C6243C3C3C343623C000000000000001D
:104890007C46424246784040400000000000000054
:1048A0003C6243C3C3C343623C180F0000000000D6
:1048B0007C6662667C6C646662000000000000003A
:1048C0003E6040601C0602027C0000000000000008
:1048D0007F18181818181818180000000000000099
:1048E00042424242424242623C000000000000005C
:1048F000C14342622624341C18000000000000005E
:10490000C1C141495B5B76666600000000000000A3
:1049100043663418181C2466C30000000000000021
:10492000C14266341C18181818000000000000006E
:104930007E02040C181020607E0000000000001CA5
:1049400010101010101010101010101C000000405B
:104950002020101008080C04060200000000003C93
:104960000C0C0C0C0C0C0C0C0C0C0C3C0000000087
:10497000181C24620000000000000000000000007D
:104980000000000000000000000000FF0000002008
:104990001000000000000000000000000000000007
:1049A00000003C06023E42467A0000000000004043
:1049B00040405C62424242427C0000000000000035
:1049C00000001E20604060203E0000000000000249
:1049D00002023E62424242663A00000000000000CD
:1049E00000003C62427E40603E0000000000000F7C
:1049F0001810107E101010101000000000000000B1
:104A000000003F66426658403E43423C0000004082
:104A100040405C62424242424200000000000018F6
:104A200018007808080808087E000000000000044C
:104A30000C007C040404040404040C7800000060EE
:104A40006060626C7870686462000000000000784A
:104A500008080808080808087E0000000000000098
:104A60000000764B4B4B4B4B4B000000000000000E
:104A700000005C624242424242000000000000002E
:104A800000003C62424342623C0000000000000023
:104A900000005C62424242427C4040400000000014
:104AA00000003E62424242663A02020200000000FA
:104AB00000006E7263606060600000000000000033
:104AC00000003E20203C06027C00000000000000A8
:104AD0001010FE10101010101E000000000000004A
:104AE00000004242424242663A00000000000000DC
:104AF0000000434266243418180000000000000043
:104B00000000C1C15B5A5E66660000000000000044
:104B1000000062261C181C26620000000000000035
:104B2000000043426624341C181830E000000000E6
:104B300000007E060C1810207E0000000000000E11
:104B400018101010307010101010180E0000080807
:104B500008080808080808080808080800000030C5
:104B6000180808080C0E0808080818300000000093
:104B700000000000714B0600000000000203040565
:104B8000060708090A0B0C0D0E0F10100102000099
:104B900049444C4500000000546D72510000000073
:0C4BA000546D722053766300100000205A
:084BAC00D9430008350100089F
:044BB40011010008E3
:104BB8000024F4000100000010000000AAAAAAAA1C
:104BC80000000000FC02002064030020CC03002049
:104BD80000000000000000000000000000000000CD
:104BE80000000000000000000000000000000000BD
:104BF80000000000000000000000000000000000AD
:104C0800000000000000000000000000000000009C
:104C1800000000000000000000000000000000008C
:104C2800000000000000000000000000000000007C
:104C3800000000000000000000000000000000006C
:104C4800000000000000000000000000000000005C
:104C5800000000000000000000000000000000004C
:104C6800000000000000000001000000000000003B
:104C78000E33CDAB34126DE6ECDE05000B00000000
:104C8800000000000000000000000000000000001C
:104C9800000000000000000000000000000000000C
:104CA80000000000000000000000000000000000FC
:104CB80000000000000000000000000000000000EC
:0C4FE8000000000000000000E02200209B
:040000050800424568
:00000001FF
