:020000040800F2
:100000000028002065110008E1020008E302000852
:10001000E5020008E7020008E9020008000000000D
:10002000000000000000000000000000EB020008DB
:10003000ED02000800000000EF020008F1020008D5
:10004000AD110008AD110008AD110008AD11000898
:10005000AD110008AD110008AD110008AD11000888
:10006000AD110008AD110008AD110008AD11000878
:10007000AD110008AD110008AD110008AD11000868
:10008000AD110008AD110008AD110008AD11000858
:10009000AD110008AD110008AD110008AD11000848
:1000A000AD110008AD110008AD110008AD11000838
:1000B000AD110008AD11000800000000AD110008EE
:1000C000AD1100080000000000000000AD110008A4
:1000D00000000000AD110008AD1100080000000094
:1000E000AD110008AD110008AD11000800000000BE
:1000F0000000000000000000000000000000000000
:0C01000000000000000000005FF808F1A3
:10010C0010B5054C237833B9044B13B10448AFF345
:10011C0000800123237010BD3C040020000000006F
:10012C007C13000808B5034B1BB103490348AFF31C
:10013C00008008BD00000000400400207C13000873
:10014C0030B589B000240494059406940794174B99
:10015C009A6942F020029A619A6902F02002019297
:10016C00019A9A6942F008029A619A6902F00802AF
:10017C000292029A9A6942F004029A619B6903F016
:10018C0004030393039B0A4D22460721284600F0E3
:10019C00FFFA072304930123059306940223079384
:1001AC0004A9284600F0E4F909B030BD0010024063
:1001BC00000C014072B6FEE700B595B02822002174
:1001CC000DEB020001F012F8002305930693079340
:1001DC0008930993019302930393049301220A92C7
:1001EC004FF480330B930E920222119212934FF420
:1001FC00801313930AA800F06FFBC0B90F2305936B
:10020C0002210691002307934FF480620892099310
:10021C0005A800F099FD60B9102301930023049305
:10022C0001A800F06DFE30B915B05DF804FBFFF7C6
:10023C00C1FFFFF7BFFFFFF7BDFF000008B500F0DF
:10024C0001F9FFF7B9FFFFF77BFF00F051F800F061
:10025C00A5F80E4C00220121204600F099FA00224C
:10026C000421204600F094FA084C0022022120467A
:10027C0000F08EFA0A2000F009F901220221204632
:10028C0000F086FA0A2000F001F9EDE7000C0140BD
:10029C0082B00E4B9A6942F001029A619A6902F09F
:1002AC0001020092009ADA6942F08052DA61DB694D
:1002BC0003F080530193019B054A536823F0E063DC
:1002CC0043F00073536002B0704700BF001002404F
:1002DC0000000140FEE7FEE7FEE7FEE7FEE77047A1
:1002EC007047704708B500F0BFF808BD70470000B4
:1002FC0008B50A480A4B03604FF4E133436000230E
:10030C008360C36003610C2242618361C36100F0AE
:10031C00CDFE00B908BDFFF74DFFFBE758040020E8
:10032C000038014010B586B0002302930393049368
:10033C0005930268174B9A4201D006B010BD03F525
:10034C0058439A6942F480429A619A6902F4804255
:10035C000092009A9A6942F004029A619B6903F038
:10036C0004030193019B4FF4007302930223039344
:10037C0003230593084C02A9204600F0F9F84FF42A
:10038C008063029300230393049302A9204600F098
:10039C00EFF8D2E7003801400008014008B50948E1
:1003AC00094B0360082343600223836000238361AD
:1003BC00C361036200F0F2F900B908BDFFF7FAFE61
:1003CC00FBE700BFA0040020005C00400268094B62
:1003DC009A4200D0704782B003F5DA33DA6942F4FE
:1003EC000002DA61DB6903F400030193019B02B0A4
:1003FC00704700BF005C004010B504460E4B1878E7
:10040C004FF47A73B3FBF0F30C4A1068B0FBF3F0C3
:10041C0000F09AF868B90F2C01D901200AE00022EB
:10042C0021464FF0FF3000F057F8054B1C600020C0
:10043C0000E0012010BD00BF0400002000000020DF
:10044C000800002008B5074A136843F01003136036
:10045C00032000F02FF80F20FFF7CEFFFFF718FF57
:10046C00002008BD00200240034A1168034B1B7892
:10047C000B441360704700BF90070020040000205D
:10048C00014B1868704700BF9007002038B5044630
:10049C00FFF7F6FF0546B4F1FF3F02D0044B1B7883
:1004AC001C44FFF7EDFF401BA042FAD338BD00BF40
:1004BC0004000020074AD36823F4E0631B041B0CE0
:1004CC00000200F4E060034343F0BF6343F40033E5
:1004DC00D360704700ED00E000B5194BDB68C3F347
:1004EC000223C3F1070CBCF1040F28BF4FF0040C1E
:1004FC0003F1040EBEF1060F18D9033B4FF0FF3E7B
:10050C000EFA0CFC21EA0C0199400EFA03F322EAD4
:10051C000303194300280BDB0901C9B200F1604049
:10052C0000F5614080F800135DF804FB0023E5E75B
:10053C0000F00F000901C9B2024B1954F4E700BFD7
:10054C0000ED00E014ED00E00138B0F1807F0BD23B
:10055C004FF0E0235861054AF02182F82310002067
:10056C00986107221A6170470120704700ED00E086
:10057C0070B582B00024A4468BE07F4DAA4210D007
:10058C0007D97E4DAA420CD005F58035AA4208D079
:10059C0015E0A5F58015AA4203D005F57025AA42F1
:1005AC0009D18A68002A00F0BF80012A00F0B780C8
:1005BC004361082403E0A5F58015AA42F1D0BEF1F1
:1005CC00FF0F00F2B3800646BEF1FF0F00F2B080C1
:1005DC004FEA8C0233680F25954023EA050304FA91
:1005EC0002F2134333604B6813F0805F4FD0644BBF
:1005FC009A6942F001029A619B6903F0010301932D
:10060C00019B4FEA9C02951C5E4B53F825600CF045
:10061C0003039D000F23AB4026EA03065A4B984276
:10062C0000F08C8003F58063984200F0898003F51C
:10063C008063984200F080800323AB403343023246
:10064C00504D45F822304B6813F4801F7AD04F4A36
:10065C00936843EA0E0393604B6813F4001F77D042
:10066C004A4AD36843EA0E03D3604B6813F4003F45
:10067C0074D0464A536843EA0E0353604B6813F434
:10068C00803F71D0414A136843EA0E0313600CF1AA
:10069C00010C0A6832FA0CF36CD0012303FA0CF348
:1006AC0002EA030E33EA0202F1D14A68122A3FF63B
:1006BC0064AF122A83D801A555F822F0AF050008C3
:1006CC00150700081F07000831070008CB050008B4
:1006DC00CB050008CB050008CB050008CB050008AE
:1006EC00CB050008CB050008CB050008CB0500089E
:1006FC00CB050008CB050008CB050008CB0500088E
:10070C001907000825070008CC6858E7CC680434A2
:10071C0055E7CC68083452E7CC680C344FE70361DA
:10072C0008244CE700244AE7042448E7061D4BE75D
:10073C00ACF1080292004DE702237EE700237CE730
:10074C0001237AE7114A936823EA0E03936083E747
:10075C000E4AD36823EA0E03D36086E70B4A53682C
:10076C0023EA0E03536089E7084A136823EA0E0351
:10077C0013608CE702B070BD000022100000311035
:10078C00001002400000014000080140000401403C
:10079C000AB10161704709040161704770B586B0F8
:1007AC00002800F08180044690F8A932EBB10323B5
:1007BC0084F8A932206800F0B0FC254655F8106B7F
:1007CC00EC460FCDACE80F002B68CCF80030231DA5
:1007DC000ECB304600F09AFC054658B1022384F843
:1007EC00A9320125284606B070BD80F8A832FFF763
:1007FC00EDFDDCE70021206800F099FC2B4616E0AB
:10080C005A1C02EB820104EBC1010120487002EB7F
:10081C00820104F8313004EBC1000021C17003EBFC
:10082C00830004EBC0008163C1630164D3B26168CF
:10083C008B42E5D316E005EB850304EBC3030022E2
:10084C0083F8692183F8685183F86B21C3F8782108
:10085C00C3F87C2105EB850304EBC303C3F88021AB
:10086C000135EDB2A942E6D8254655F8106BEC4699
:10087C000FCDACE80F002B68CCF80030231D0ECB4D
:10088C00304600F056FC054620B1022384F8A9320C
:10089C000125A7E7002384F82430012384F8A9322A
:1008AC00206800F057FC9DE701259BE782B0084BC0
:1008BC001B68084AA2FB03235B0A00FB03F30193AA
:1008CC0000BF019B5A1E0192002BF9D102B0704758
:1008DC0000000020D34D6210002800F0F18170B5AB
:1008EC0082B00446036813F0010F2CD0994B5B685F
:1008FC0003F00C03042B1DD0964B5B6803F00C0328
:10090C00082B12D06368B3F5803F41D0002B55D132
:10091C0003F1804303F504331A6822F480321A6021
:10092C001A6822F480221A6037E08A4B5B6813F451
:10093C00803FE7D0874B1B6813F4003F03D06368FC
:10094C00002B00F0BF81236813F0020F75D0814B90
:10095C005B6813F00C0F5FD07E4B5B6803F00C03ED
:10096C00082B54D02369002B00F08A807A4B01228B
:10097C001A60FFF785FD0546764B1B6813F0020FD6
:10098C0075D1FFF77DFD401B0228F5D903209EE1B0
:10099C00704A136843F480331360636843B3FFF702
:1009AC006FFD05466B4B1B6813F4003FCBD1FFF773
:1009BC0067FD401B6428F5D9032088E1B3F5A02F0F
:1009CC0009D0644B1A6822F480321A601A6822F437
:1009DC0080221A60E1E703F18043A3F53C331A68E7
:1009EC0042F480221A601A6842F480321A60D4E70A
:1009FC00FFF746FD0546574B1B6813F4003FA2D08A
:100A0C00FFF73EFD401B6428F5D903205FE1514BF5
:100A1C005B6813F4803FA5D14E4B1B6813F0020F9B
:100A2C0003D02369012B40F04F814A4A136823F00D
:100A3C00F803616943EAC1031360236813F0080FDC
:100A4C0033D0A369002B5CD0434B0122C3F8802424
:100A5C00FFF716FD05463F4B5B6A13F0020F21D1E1
:100A6C00FFF70EFD401B0228F5D903202FE1394A70
:100A7C00136823F0F803616943EAC1031360DCE7F0
:100A8C00354B00221A60FFF7FBFC0546314B1B6807
:100A9C0013F0020FD1D0FFF7F3FC401B0228F5D95D
:100AAC00032014E10120FFF701FF236813F0040F6A
:100ABC0000F09680274BDB6913F0805F34D1254B17
:100ACC00DA6942F08052DA61DB6903F080530193FA
:100ADC00019B0125214B1B6813F4807F26D0E36812
:100AEC00012B3DD0002B53D103F1804303F504338C
:100AFC001A6A22F001021A621A6A22F004021A62BD
:100B0C0033E0154B0022C3F88024FFF7B9FC0546EF
:100B1C00104B5B6A13F0020FC7D0FFF7B1FC401B00
:100B2C000228F5D90320D2E00025D3E70B4A13683D
:100B3C0043F480731360FFF7A3FC0646074B1B6856
:100B4C0013F4807FCBD1FFF79BFC801B6428F5D975
:100B5C000320BCE000100240000042420070004044
:100B6C005F4A136A43F001031362E36833B3FFF780
:100B7C0087FC06465A4B1B6A13F0020F2FD1FFF766
:100B8C007FFC801B41F288339842F3D903209EE00E
:100B9C00052B09D0524B1A6A22F001021A621A6A0A
:100BAC0022F004021A62E0E74D4B1A6A42F004028A
:100BBC001A621A6A42F001021A62D6E7FFF760FC69
:100BCC000646474B1B6A13F0020F08D0FFF758FC80
:100BDC00801B41F288339842F3D9032077E0E5B9C2
:100BEC00E369002B72D03E4A526802F00C02082ACC
:100BFC0056D0022B17D03B4B00221A66FFF740FC55
:100C0C000446374B1B6813F0007F47D0FFF738FCC6
:100C1C00001B0228F5D9032059E0314AD36923F08F
:100C2C008053D361DCE72F4B00221A66FFF728FCB8
:100C3C0005462B4B1B6813F0007F06D0FFF720FCFA
:100C4C00401B0228F5D9032041E0236AB3F5803F0D
:100C5C001AD023494B6823F47413226A606A024346
:100C6C0013434B601F4B01221A66FFF709FC044625
:100C7C001B4B1B6813F0007F0ED1FFF701FC001B10
:100C8C000228F5D9032022E0154A536823F40033D7
:100C9C00A1680B435360DCE7002018E0002016E04D
:100CAC00012B16D00E4B5B6803F48031226A914203
:100CBC0011D103F47013626A93420ED1002006E046
:100CCC0001207047012002E0012000E0002002B06A
:100CDC0070BD0120FBE70120F9E70120F7E700BF19
:100CEC000010024000004242114B5A6802F00C0303
:100CFC00042B18D0082B18D1C2F383430D49C85CC0
:100D0C0012F4803F0BD00A4B5B68C3F340430A4A92
:100D1C00D35C0A4A02FB00F0B0FBF3F07047084BBF
:100D2C0003FB00F07047054870470648704700BF4A
:100D3C0000100240AC130008BC130008001BB700E5
:100D4C0000093D0000127A00002800F0A08070B568
:100D5C000D460446524B1B6803F007038B420BD223
:100D6C004F4A136823F007030B431360136803F017
:100D7C0007038B4240F08D80236813F0020F17D0CD
:100D8C0013F0040F04D0474A536843F4E0635360F4
:100D9C00236813F0080F04D0424A536843F460539D
:100DAC005360404A536823F0F003A1680B4353602F
:100DBC00236813F0010F31D06368012B20D0022B74
:100DCC0025D0384A126812F0020F64D035494A68AF
:100DDC0022F0030213434B60FFF752FB0646314BE4
:100DEC005B6803F00C036268B3EB820F16D0FFF75D
:100DFC0047FB801B41F288339842F0D9032045E031
:100E0C00284A126812F4003FE0D101203EE0254A46
:100E1C00126812F0007FD9D1012037E0204B1B68FB
:100E2C0003F00703AB420AD91D4A136823F00703EA
:100E3C002B431360136803F00703AB422DD12368D7
:100E4C0013F0040F06D0174A536823F4E063E168EB
:100E5C000B435360236813F0080F07D0114A5368F3
:100E6C0023F46053216943EAC1035360FFF73CFF4D
:100E7C000C4B5B68C3F303130B4AD35CD8400B4B8E
:100E8C0018600B4B1868FFF7B7FA002070BD0120F3
:100E9C0070470120FAE70120F8E70120F6E700BFD0
:100EAC0000200240001002409413000800000020B3
:100EBC0008000020014B1868704700BF000000209C
:100ECC0008B5FFF7F7FF044B5B68C3F30223034A33
:100EDC00D35CD84008BD00BF00100240A41300082A
:100EEC0008B5FFF7E7FF044B5B68C3F3C223034A63
:100EFC00D35CD84008BD00BF00100240A41300080A
:100F0C0070B582B00446036813F0010F36D03F4B26
:100F1C00DB6913F0805F49D13C4BDA6942F08052B7
:100F2C00DA61DB6903F080530193019B0125384B97
:100F3C001B6813F4807F3BD0344B1B6A13F4407353
:100F4C0013D0626802F440729A420ED02F4A136A90
:100F5C0023F440702F490126C1F840640026C1F8E3
:100F6C004064106213F0010F36D1284A136A23F43F
:100F7C00407361680B431362002D3ED1236813F05C
:100F8C00020F06D0214A536823F44043A1680B4357
:100F9C005360236813F0100F34D01C4A536823F4A9
:100FAC008003E1680B43536000202CE00025BEE772
:100FBC00174A136843F480731360FFF761FA06460F
:100FCC00134B1B6813F4807FB6D1FFF759FA801BC3
:100FDC006428F5D9032016E0FFF752FA06460B4BAE
:100FEC001B6A13F0020FC0D1FFF74AFA801B41F2C3
:100FFC0088339842F3D9032005E0D36923F080535A
:10100C00D361BBE7002002B070BD00BF00100240EE
:10101C00007000400000424210B50446026813699B
:10102C0023F44053C1680B43136183680269134373
:10103C0042691A430168CB6823F4B05323F00C03C4
:10104C001343CB600268536923F4407381690B43EB
:10105C0053610268134B9A4220D0FFF731FF0246CE
:10106C0002EB820202EB820263689B00B2FBF3F29A
:10107C000D48A0FB02314909642303FB11231B011A
:10108C003233A0FB03235B0903F0F00202EB0112E5
:10109C0003F00F03216813448B6010BDFFF720FF92
:1010AC000246DDE7003801401F85EB5160B310B5F7
:1010BC00044690F8413013B3242384F8413022685D
:1010CC00D36823F40053D3602046FFF7A5FF2268B2
:1010DC00136923F4904313612268536923F02A03A4
:1010EC0053612268D36843F40053D36000206064DA
:1010FC00202384F8413084F84230606310BD80F8BE
:10110C004030FFF70FF9D7E70120704784B001A8F2
:10111C0080E80E00002004B07047B0F8403023F493
:10112C007C535B045B0CA0F840300020704700201F
:10113C00704784B0844601A880E80E000123ACF807
:10114C0040300020ACF84000ACF84400ACF8500043
:10115C0004B0704700207047FFF7C8F80B480C49E3
:10116C000C4A002302E0D458C4500433C4188C42F7
:10117C00F9D3094A094C002301E013600432A2425E
:10118C00FBD300F00FF8FFF759F870470000002070
:10119C003C040020D01300083C04002098070020D9
:1011AC00FEE7000070B50D4E0D4D761BB61006D047
:1011BC00002455F8043B01349847A642F9D1094E56
:1011CC00094D00F0D5F8761BB61006D0002455F862
:1011DC00043B01349847A642F9D170BDC4130008F2
:1011EC00C4130008CC130008C4130008830730B5DF
:1011FC0048D0541E002A3FD00346CAB201E0013C3D
:10120C003AD303F8012B9D07F9D1032C2DD9CDB27C
:10121C0045EA05250F2C45EA054536D9A4F11002FF
:10122C0022F00F0C03F1200EE6444FEA121C03F1DE
:10123C00100242E9045542E9025510327245F8D1C8
:10124C000CF1010214F00C0F03EB021204F00F0C62
:10125C0013D0ACF1040323F003030433134442F81A
:10126C00045B9342FBD10CF003042CB1CAB21C44B6
:10127C0003F8012B9C42FBD130BD64461346002C75
:10128C00F4D1F9E703461446BFE71A46A446E0E753
:10129C00024B13B1024800F005B870470000000083
:1012AC00BD120008002301461A46184600F01AB871
:1012BC0038B5084B084D5B1B9C1007D0043B1D44F4
:1012CC00013C55F804399847002CF9D1BDE8384059
:1012DC0000F054B8D0130008CC130008704700BFBE
:1012EC00704700BF2DE9F047DFF87CA00646DAF81E
:1012FC00000098460F469146FFF7F0FF1B4B1B680A
:10130C00D3F8484124B365681F2D26DC5EB96B1CED
:10131C000235DAF80000636044F82570FFF7E0FF4F
:10132C000020BDE8F087012304EB8501C1F888900B
:10133C00D4F88821AB401A43022EC4F88821C1F896
:10134C000881E4D1D4F88C211343C4F88C31DEE746
:10135C0003F5A674C3F84841D5E7DAF80000FFF7A7
:10136C00BFFF4FF0FF30DCE738040020C01300084B
:10137C00F8B500BFF8BC08BC9E467047F8B500BF76
:08138C00F8BC08BC9E46704746
:101394000000000000000000010203040607080921
:1013A4000000000001020304020304050607080903
:1013B4000A0B0C0D0E0F101001020000100000208B
:0813C4009D1200083101000830
:0413CC000D01000807
:1013D0000024F400010000001000000000000000E4
:1013E00000000000FC02002064030020CC03002069
:1013F00000000000000000000000000000000000ED
:1014000000000000000000000000000000000000DC
:1014100000000000000000000000000000000000CC
:1014200000000000000000000000000000000000BC
:1014300000000000000000000000000000000000AC
:10144000000000000000000000000000000000009C
:10145000000000000000000000000000000000008C
:10146000000000000000000000000000000000007C
:10147000000000000000000000000000000000006C
:10148000000000000000000001000000000000005B
:101490000E33CDAB34126DE6ECDE05000B00000020
:1014A000000000000000000000000000000000003C
:1014B000000000000000000000000000000000002C
:1014C000000000000000000000000000000000001C
:1014D000000000000000000000000000000000000C
:0C18000000000000000000009407002021
:040000050800116579
:00000001FF
